:1010000028EF08F0FF00FF00D9CF02F0DACF03F09D
:10101000A8EF3AF0FF00FF00D8CF04F0E8CF05F0CA
:10102000E0CF06F09EB09DA00CD0FE0ECF6E0D0E50
:10103000CE6E9E9002013B4B3C2B0001F24BF32BFA
:1010400000F006C0E0FF05C0E8FF04C0D8FF1000B4
:10105000EFEF2FF000005EBCE2613FDD83C29C7EBB
:1010600020A3FD1F419DC3217FFCA2401E5F01E321
:10107000BD3E6082DC237D9FC1421CFEA0E1BF5DBE
:101080000380DE3C62BEE0025CDF81633D7C22C007
:101090009E1D43A1FF4618FAA427799BC584DA3820
:1010A00066E5BB5907DB856739BAE406581947A5D9
:1010B000FB7826C49A653BD987045AB8E6A7F91B82
:1010C00045C6987A24F8A6441A99C7257B3A6486BF
:1010D000D85B05E7B98CD2306EEDB3510F4E10F2EC
:1010E000AC2F7193CD114FADF3702ECC92D38D6F89
:1010F00031B2EC0E50AFF1134DCE90722C6D33D156
:101100008F0C52B0EE326C8ED0530DEFB1F0AE4C6E
:101110001291CF2D73CA947628ABF517490856B4AF
:10112000EA6937D58B5709EBB536688AD495CB2950
:1011300077F4AA4816E9B7550B88D6346A2B759709
:10114000C94A14F6A8742AC896154BA9F7B6E80A36
:1011500054D7896B350000803FCDCCCC3D0AD723D6
:101160003C6F12833A17B7D138ACC52737BD3786E5
:101170003595BFD63377CC2B325F708930FFE6DBF5
:101180002E08E53C1E6042A20D0000803F000020BA
:10119000410000C84200007A4400401C460050C391
:1011A00047002474498096184B20BCBE4C286B6EB7
:1011B0004EF9021550EC78AD60CAF2497100030C8B
:1011C0000C030C18030C2403130000143703030151
:1011D0000000000A00000064000000E803000010A6
:1011E000270000A086010040420F00809698000072
:1011F000E1F50500CA9A3B41542B485454505041E4
:1012000052413D5E55524C5E2C5E6361726466696C
:10121000656C642E636F6D2E75612F6D6574656FDF
:10122000746573742F736372697074732F666F7251
:101230006D5F6765742E7068703F6465765F696482
:101240003D2573002652313D25312E31662652321E
:101250003D25312E31662652333D25312E3166260D
:1012600052343D25312E31662652353D25312E3101
:10127000662652363D25312E31662652373D2531C0
:101280002E31662652383D25312E316600265431E6
:101290003D25312E31662654323D25312E316626CC
:1012A00054333D25312E31662654343D25312E31BF
:1012B000662654353D25312E31662654363D25317E
:1012C0002E31662654373D25312E31662654383D61
:1012D00025312E31660053455420494428737472D9
:1012E000696E6720312E2E3136292C205045522828
:1012F000302C2031302E2E31303030306D696E2957
:101300002C20504F5228302E2E31303070657263B1
:10131000290D0A00266D6573736167653D45766525
:101320006E743A2573204E554D2573204D2573203C
:10133000553D25312E326656205045523D257520AB
:10134000504F523D25755E0D0A000D0A7461736B96
:10135000436F6E6E6563743A204D6F64656D2069EE
:1013600073277420636F6E6E65637465642E20440A
:101370006F2072657365742E2E0D0A0D0A002532DA
:101380002E31662025322E31662025322E31662000
:1013900025322E31662025322E31662025322E311F
:1013A000662025322E31662025322E31660D0A0048
:1013B000474554202D20542C20522C20552C2054AD
:1013C0004E2C204D4F4E2C2049442C205045522C61
:1013D00020504F522C202847294750530D0A000D0A
:1013E0000A7461736B436F6E6E6563743A204D6F60
:1013F00064656D2063616E277420636F6E6E656334
:10140000742E2053746F702E0D0A0D0A000D0A748D
:1014100061736B436F6E6E6563743A205472616ED4
:10142000736D697474696F6E20737563636573732C
:101430006564210D0A00474554202D20542C20526C
:101440002C20552C20544E2C204D4F4E2C204944FE
:101450002C205045522C20504F520D0A000D0A747A
:1014600061736B436F6E6E6563743A204D6F646594
:101470006D20697320636F6E6E65637465640D0A19
:101480000D0A000D0A4D6F64656D2077696C6C2044
:10149000626520736C65657020696E2025756D69C5
:1014A0006E2E200D0A3E20007461736B436F6E6ECA
:1014B0006563743A2041736B206D6F64656D202500
:1014C0007564206174656D70740D0A005045524951
:1014D0004F44206D7573742062652030206F722038
:1014E00031302E2E31303030306D696E0D0A000DE6
:1014F0000A4D6F64656D2069732073657474696E3D
:101500006720706F77657220646F776E0D0A000D2B
:101510000A7461736B436F6E6E6563743A204E6F2D
:10152000206D6F6E65792E2053746F700D0A005216
:101530004553455444202D20726573657420656EB3
:1015400074697265206465766963650D0A00454EAD
:1015500054455220696E20636F6E74726F6C6C65B7
:101560007220636F6E736F6C0D0A002B43475053EC
:101570005354415455533A204C6F636174696F6EF4
:1015800020324420466978002B434750535354413E
:101590005455533A204C6F636174696F6E20334425
:1015A00020466978000D0A7461736B436F6E6E6537
:1015B00063743A2054727920616761696E0D0A0084
:1015C000504F524F47206D75737420626520302E46
:1015D0002E31303025250D0A004445425547202D37
:1015E0002067657420646562756720696E666F0D9B
:1015F0000A004558495420696E2053494D39303806
:1016000020636F6E736F6C0D0A0061742B637573CA
:10161000643D312C5E2A313131235E2C31350D0A87
:10162000005245534554202D207265736574205334
:10163000494D3930380D0A005345543A205045522F
:10164000494F442069732025756D696E0D0A00535A
:101650004C454550202D2044657669636520536CC8
:101660006565700D0A0041542B435553443D312CA0
:101670005E2A313131235E2C31350D0A0041542B65
:1016800048545450504152413D5E4349445E2C31D0
:101690000D0A000D0A7461736B436F6E6E6563749F
:1016A0003A2053746F700D0A0041542B434E4D493C
:1016B0003D302C322C302C302C30200D0A0053457C
:1016C00054202D2049442C205045522C20504F525C
:1016D0000D0A00505752444E202D204D6F64656D09
:1016E000204F46460D0A0053454E4444202D20739A
:1016F000656E6420646174610D0A004745543A20A8
:101700005045522069732025756D696E0D0A0041A0
:10171000542B434E4D493D312C322C302C302C3043
:101720000D0A000D0A7461736B436F6E6E6563740E
:101730003A2025730D0A004745543A20504F522055
:10174000697320257525250D0A005057524F4E20EC
:101750002D204D6F64656D204F4E0D0A005345548A
:101760003A20504F524F472069732025750D0A00CB
:101770002B48545450414354494F4E3A302C323048
:10178000302C00556E6B6E6F776E20636F6D6D61E0
:101790006E640D0A004E6F7720697320736C656567
:1017A00070696E670D0A000D0A456E746572206DD2
:1017B0006F6465206F6E0D0A0041542B48545450DD
:1017C000414354494F4E3D300D0A00456E746572D9
:1017D000206D6F6465206F66660D0A0041542B43CF
:1017E0004750535354415455533F0D0A00526573AB
:1017F00065742053494D203930380D0A004745544F
:101800003A2049442069732025730D0A005345543A
:101810003A2049442069732025730D0A00526573EC
:101820006574206279205744540D0A00526573652F
:101830007420627920636D640D0A004D6F64656DDC
:10184000206973206F66660D0A0041542B53415086
:1018500042523D302C310D0A0041542B534150422D
:10186000523D312C310D0A0041542B434D47533D1D
:101870005E25735E0D0A0041542B43475053494E79
:10188000463D300D0A0041542B43475053505752A8
:101890003D310D0A0041542B434750535253543DA0
:1018A000310D0A00556E636F6E6E65637465640D6D
:1018B0000A0041542B485454505445524D0D0A00CF
:1018C00041542B48545450494E49540D0A00415438
:1018D0002B43504F57443D310D0A00436F6E6E65E8
:1018E000637465640D0A00264E3D257326453D252B
:1018F0007300553D25312E3266560D0A0041542B9A
:10190000434E554D0D0A005354415455530D0A0092
:101910004D616E75616C2020004368616E676520C3
:1019200052005374617274757000286E756C6C2966
:101930000025322E316620002B435553443A002BAC
:10194000434E554D3A00524553455444001B5B33BA
:10195000326D001B5B33336D002B434D543A005303
:10196000454E444400444542554700505752444E6A
:10197000005057524F4E00534C45455000454E5471
:1019800045520052455345540054696D6572001B21
:101990005B306D0067726E2E002B333830004C497F
:1019A0004E4B0048454C5000535441540045584953
:1019B000540041540D0A004E554D004D4F4E004706
:1019C00050530050455200504F5200474554004973
:1019D0004400544E004F4B003F005500000062850C
:1019E000020E46EC3BF0000902E068EF12F0010E37
:1019F00087EC39F0000911E0010E76EC3BF0170E90
:101A0000096EA70E086E5EEC36F0770E096E400E7A
:101A1000086EF9EC38F068EF12F0020E87EC39F03E
:101A200000090BE0010E81EC3BF0170E096ECB0EA6
:101A3000086E5EEC36F068EF12F0010E46EC3BF0FB
:101A4000000902E168EF12F0010E706F1CEF12F056
:101A500000F000F0130E87EC39F0000906E0170ED5
:101A6000096E830E086E5EEC36F0030E87EC39F0DB
:101A7000000950E000F00BEC3AF0190E096EB20EBE
:101A8000086E70EC3AF0F2AE04D0010E0101FD6F69
:101A900002D00101FD6BF29EF2C0FAF1F3C0FBF13E
:101AA0000201486B510E476F69EC12F0D8B4BC5D6F
:101AB00008E20101FD0502E068EF12F0F28E68EF26
:101AC00012F082EC12F0D8B4F28E00F000F049EC83
:101AD0003AF0000907E0180E096EDB0E086E87EC7D
:101AE00036F006D0180E096EA40E086E87EC36F09C
:101AF000770E096E400E086EF9EC38F00201706B3B
:101B0000000E486F5A0E476F0201706702D068EFEF
:101B100012F000F0050E87EC39F0000908E06BECDC
:101B20003BF0170E096EED0E086E5EEC36F0090EF6
:101B300087EC39F0000923E0170E096E950E086E48
:101B40005EEC36F0F2AE04D0010E0101FD6F02D062
:101B50000101FD6BF29EF2C0FAF1F3C0FBF102014C
:101B6000486B660E476F69EC12F0D8B4BC5DA1E318
:101B700082EC12F0D8B4F28E00F097EC3BF0060E37
:101B800087EC39F000094AE0160E096EA90E086EBE
:101B900070EC3AF0F2AE04D0010E0101FD6F02D0FC
:101BA0000101FD6BF29EF2C0FAF1F3C0FBF10201FC
:101BB000486B6D0E476F69EC12F0D8B4BC5D01E262
:101BC00078D782EC12F0D8B4F28E00F0180E1A6EAC
:101BD000CE0E196E50EC33F0F2AE04D0010E0101BE
:101BE000FD6F02D00101FD6BF29EF2C0FAF1F3C06D
:101BF000FBF10201486B6F0E476F69EC12F0D8B42D
:101C0000BC5D01E256D782EC12F0D8B4F28E00F03F
:101C1000770E096E400E086EF9EC38F0080E87EC6E
:101C200039F0000949E000F0D1A023D0180E096E68
:101C30001D0E086E5EEC36F0F2AE04D0010E01010E
:101C4000FD6F02D00101FD6BF29EF2C0FAF1F3C00C
:101C5000FBF10201486B780E476F69EC12F0D8B4C3
:101C6000BC5D01E226D782EC12F0D8B4F28E00F00F
:101C7000FFD7180E096E2C0E086E5EEC36F0F2AE31
:101C800004D0010E0101FD6F02D00101FD6BF29E37
:101C9000F2C0FAF1F3C0FBF10201486B7C0E476F12
:101CA00069EC12F0D8B4BC5D01E203D782EC12F00B
:101CB000D8B4F28E00F0FF00110E87EC39F0000965
:101CC00001E1DFD0936707D0020E096EBE0E086EE9
:101CD0005EEC36F0C5D0190E086ECF0E076E020E00
:101CE0000A6E930E096E92EC37F00850071027E148
:101CF0000201A76701D0E8D7B86B0F6A140E0E6E09
:101D0000020E116EA70E106E100E126E2AEC39F034
:101D1000010E00016D6F140E6C6F180E6F6F0D0EBB
:101D20006E6F020E716FA70E706FAFEC12F00101B3
:101D3000010E096E140E086E5EEC36F091D0190E8D
:101D4000086EC30ED8DB92EC37F00850071038E16C
:101D50000201A76701D0B8D7020E0E6EA70E0D6E56
:101D60006BEC31F00DC051F10EC052F10101525136
:101D700051110AE0110E515D270E52591AE20A0E56
:101D8000515D000E525915E30F6A250EE0DB2AEC77
:101D900039F0010E00016D6F140E6C6F160E6F6F2F
:101DA000380E6E6F51C170F052C171F0AFEC12F08D
:101DB000BED7140E096ECC0E086E5EEC36F050D015
:101DC000190E086EC70E97DB92EC37F0085007101B
:101DD00030E10201A76701D077D7020E0E6EA70E81
:101DE0000D6E6BEC31F00DC051F10EC052F1650E6D
:101DF0000101515D000E525915E20F6A270EA7DB53
:101E00002AEC39F0010E00016D6F140E6C6F170E85
:101E10006F6F5D0E6E6F51C170F052C171F0AFEC1B
:101E200012F085D7150E096EC00E086E5EEC36F006
:101E300017D0190E086ED80E5EDB92EC37F0085002
:101E4000071007E1120E096ED60E086E5EEC36F032
:101E500007D00401040E096E530E086E5EEC36F0D6
:101E6000770E096E400E086EF9EC38F00201706BC7
:101E7000000E486FBE0E476F0201706701D028D375
:101E800000F0120E87EC39F0000901E170D293677F
:101E900007D0020E096EBE0E086E5EEC36F056D20A
:101EA000190E086E200E076E020E0A6E930E096E52
:101EB00092EC37F0085007103EE1050E76EC3BF04F
:101EC000486BC80E476F050E46EC3BF0000901E079
:101ED000FFD200F00101506B070E506501D024D0F5
:101EE00018DB87EC22F00001DECF70F0DECF71F05E
:101EF000DECF72F0DECF73F0AFEC12F0190E096E88
:101F00004D0E086E87EC36F00101010E096E140EBD
:101F1000086E5EEC36F0190E096E8F0E086E87ECB7
:101F200036F00101502BD8D7130E096E7B0E086EC8
:101F30005EEC36F00BD2190E086EAB0EDCDA92ECCA
:101F400037F00850071043E1060E76EC3BF0486B83
:101F5000D30E476F060E46EC3BF0000901E0B8D205
:101F600000F00101506B070E506501D029D0D1DA85
:101F7000040D3A0EF324D96E030EF420DA6E00013C
:101F8000DECF70F0DECF71F0DECF72F0DECF73F017
:101F9000AFEC12F0190E096E4D0E086E87EC36F09C
:101FA0000101010E096E140E086E5EEC36F0190E7A
:101FB000096E8F0E086E87EC36F00101502BD3D7D7
:101FC000130E096E7B0E086E5EEC36F0BFD1190E53
:101FD000086EDA0E90DA92EC37F00850071034E110
:101FE000070E76EC3BF0486BDF0E476F070E46ECB2
:101FF0003BF0000901E06CD200F0010E00016D6FB2
:10200000140E6C6F180E6F6FF20E6E6FE1C370F0EE
:10201000E2C371F0E3C372F0E4C373F0AFEC12F00B
:10202000190E096E4D0E086E87EC36F00101010E97
:10203000096E140E086E5EEC36F0190E096E8F0EE6
:10204000086E87EC36F082D1190E086ED20E53DA84
:1020500092EC37F00850071009E0190E086EB70E21
:102060004ADA92EC37F0085007104FE10BEC3AF0E7
:10207000180E1A6EFD0E196E50EC33F0F2AE04D04D
:10208000010E0101FD6F02D00101FD6BF29EF2C055
:10209000FAF1F3C0FBF10201486BE80E476FF2C0A2
:1020A000BCF0F3C0BDF00101FA510001BC5F0101B9
:1020B000FB510001BD5BBD51800AF36E830EF35CE2
:1020C000E80ED8B4BC5D01E2F4D41CDAD8B4F28EC8
:1020D00000F0BBEC32F0190E096E530E086E87EC5F
:1020E00036F00301030E096E9A0E086E87EC36F087
:1020F000190E096E8F0E086E87EC36F0130E096EFE
:102100007B0E086E87EC36F021D1190E086EBB0EDF
:10211000F2D992EC37F00850071049E100F00BECCF
:102120003AF0160E1A6E0A0E196E50EC33F00201D8
:10213000716BF2AE04D0010E0101FD6F02D00101FE
:10214000FD6BF29EF2C0FAF1F3C0FBF10201486BA5
:10215000F70E476FBED9D8B4BC5D01E2AAD4D2D97C
:10216000D8B4F28E00F018EC32F000091AE0190E23
:10217000096E530E086E87EC36F00301030E096EEC
:10218000CC0E086E87EC36F0190E096E8F0E086EB5
:1021900087EC36F0130E096E7B0E086E87EC36F076
:1021A000D5D00201712B140E7165C3D7CFD0190E93
:1021B000086EBF0EA0D992EC37F00850071042E12C
:1021C0000BEC3AF0170E1A6EDC0E196E50EC33F071
:1021D000F2AE04D0010E0101FD6F02D00101FD6BD2
:1021E000ADD9050E476F75D9D8B4BC5D01E261D495
:1021F00089D9D8B4F28E00F049EC3AF000091BE01E
:10220000180E1A6E770E196E50EC33F0F2AE04D041
:10221000010E0101FD6F02D00101FD6B8FD9080E87
:10222000476F57D9D8B4BC5D01E243D46BD9D8B459
:10223000F28E00F08BD0180E096E3B0E086E87EC04
:1022400036F084D0190E086ECF0E55D992EC37F0C7
:102250000850071026E100F00D6A140E0C6E010103
:10226000010E0F6E000E0E6E110E106E20EC3AF085
:102270000101106B010E00016D6F140E6C6F170ED3
:102280006F6FFD0E6E6F010E716F000E706FAFEC11
:1022900012F00101010E096E140E086E5EEC36F0AC
:1022A00055D0190E086EC30E26D992EC37F008509F
:1022B000071016E100F00D6A250E37D920EC3AF030
:1022C000010E00016D6F140E6C6F160E6F6FFB0E1A
:1022D0006E6F51C170F052C171F0AFEC12F0D9D7EE
:1022E000190E086EC70E07D992EC37F00850071088
:1022F00016E100F00D6A270E18D920EC3AF0010E15
:1023000000016D6F140E6C6F170E6F6F370E6E6FCE
:1023100051C170F052C171F0AFEC12F0BAD7190E82
:10232000086ED80EE8D892EC37F00850071007E195
:10233000140E096E360E086E5EEC36F007D00401FE
:10234000040E096E530E086E5EEC36F0770E096EC1
:10235000400E086EF9EC38F00201706B010E486F08
:102360002A0E476F0201706701D0B2D000F00B0E49
:1023700087EC39F0000948E0190E096E070E086E67
:102380005EEC36F0130E096EB00E086E5EEC36F0A1
:10239000160E096EBE0E086E5EEC36F0160E096E55
:1023A000210E086E5EEC36F0150E096E2F0E086ECB
:1023B0005EEC36F0150E096E4E0E086E5EEC36F0D1
:1023C000150E096EF20E086E5EEC36F0160E096EF2
:1023D000E70E086E5EEC36F0150E096ED90E086E2B
:1023E0005EEC36F0170E096E4A0E086E5EEC36F0A3
:1023F000160E096ED30E086E5EEC36F0160E096EE0
:102400004F0E086E5EEC36F00A0E87EC39F00009CC
:1024100006E0770E096E400E086EF9EC38F0020106
:10242000706B010E486F430E476F0201706701D059
:102430004FD000F028EF0DF047C2BCF048C2BDF00D
:102440000001BD5104E0010A35E028EF0DF0BC5158
:1024500002E128EF0DF0510A02E154EF0DF00B0AF2
:1024600002E184EF0DF03C0A02E1B3EF0DF00B0A3C
:1024700002E1DBEF0DF0020A02E1FDEF0DF0170AB9
:1024800002E12DEF0EF0040A01E10AD4C20A01E1D3
:10249000F3D4760A01E117D51B0A01E15BD50C0ADA
:1024A00001E1A4D5370A01E1FAD51F0A01E152D6AC
:1024B00028EF0DF0BC51050A01E195D60D0A01E1A6
:1024C000B0D6220A01E14ED7690AAFE028EF0DF03D
:1024D0001200F2C0BCF0F3C0BDF00101FA510001DE
:1024E000BC5F0101FB510001BD5BBD51800AF36E71
:1024F000810EF35CF40C076E0201020E0A6E930E5D
:10250000096E1200F2C0FAF1F3C0FBF10101FD0502
:102510001200010E00016D6F140E6C6F190E6F6FBB
:10252000310E6E6F0101505112000C6E0101010E4F
:102530000F6E510E0E6E020E106E020CF29EF2C065
:10254000FAF1F3C0FBF1010E0201486F010C0E6EAF
:10255000010E116E510E106E020E126E020C700EF4
:10256000A66F3DEF17F0BB51250A0AE06CC0D9FFFA
:102570006DC0DAFFBBC0DFFF6C4B6D2B3DEF17F07A
:10258000AF6BB06BAB6BAC6B61EC17F038EC3BF046
:1025900029E30001AF6BB06BAFC007F0B0C008F02B
:1025A0000A6A0A0E096E83EC3AF007C0AFF008C061
:1025B000B0F0D00E0001906F916961EC17F0926F4E
:1025C000936B90519227915193239251AF2793513E
:1025D000B0236E4B6F2B6EC0F6FF74EC17F038EC27
:1025E0003BF0DAE2000161EC17F02E0A26E1AC8D37
:1025F0006E4B6F2BB56BB66B17D0B5C007F0B6C07E
:1026000008F00A6A0A0E096E83EC3AF0000161ECE8
:1026100017F00726000E0822D00E0724B56FFF0E14
:102620000820B66F6E4B6F2B6EC0F6FF74EC17F080
:1026300038EC3BF001E28ED0E0D7B56BB66BAC89DD
:1026400089D0AC8597D0A651D96EDA6ADECFB7F0C3
:10265000DDCFB8F0020EA627B851B71104E1190E6C
:10266000B86F2A0EB76FB96BBA6B03D00001B94BC4
:10267000BA2BB7C090F0B8C091F0B9519027BA51B9
:10268000912390C0F6FF91C0F7FFF86A0F0EF76430
:1026900003D00800F55005D0F6CFE1FFF7CFE2FFF9
:1026A000E7500009E3E10001B651B51109E0B95165
:1026B000B55DBA51B65904E2B5C0B9F0B6C0BAF0CA
:1026C000AF51B95DB051BA5907E220EEB9F0DE5012
:1026D000AF5FDD50B05B07D0AF6BB06B04D079EC6F
:1026E00017F06C4B6D2BAF07D8A0B0070001AF29D6
:1026F000D8B4B0291BE0F3D7B7C0F6FFB8C0F7FFD6
:10270000F86A6CC0D9FF6DC0DAFF0F0EF76403D012
:102710000800F55005D0F6CFE1FFF7CFE2FFE75014
:10272000DF6E0001B74BB82B6C4B6D2BB907D8A0EF
:10273000BA070001B929D8B4BA2901E19ED3DCD780
:10274000B86BBB0EB76FBA6B010EB96FACD7C00ECA
:10275000AB1310D000016EC0F6FFD8DBBB5101E116
:1027600093D3660A01E16DD7150A01E16CD7060A19
:10277000EEE0E6D7070EAC1501E1B4D2ACA903D068
:10278000B66B060EB56FA651D96EDA6ADECFB1F020
:10279000DECFB2F0DECFB3F0DECFB4F0040EA6276A
:1027A000B4AF14D0B1C007F0B2C008F0B3C009F0A4
:1027B000B4C00AF096EC3AF007C0B1F008C0B2F02D
:1027C00009C0B3F00AC0B4F0030EAB13AD6BAE6B2F
:1027D00020EEB1F0DE50DE10DE10DE107BE0B3350F
:1027E000B435820FAD6FAE6BFF0EAE23AD07D8A030
:1027F000AE07ADC007F0AEC008F00A6A030E096E5E
:1028000083EC3AF007C0ADF008C0AEF0ADC00DF0FB
:10281000AEC00EF0106A0A0E0F6E06EC33F00DC05B
:10282000ADF00EC0AEF07ADB000ED8B4AD5D03E2C1
:10283000AD07D8A0AE07AD5100089BEC25F040C015
:10284000A7F041C0A8F042C0A9F043C0AAF0A7C0B9
:102850002DF0A8C02EF0A9C02FF0AAC030F0B1C052
:1028600031F0B2C032F0B3C033F0B4C034F03FEC5A
:102870002DF02DC0A7F02EC0A8F02FC0A9F030C0B9
:10288000AAF0A7C064F0A8C065F0A9C066F0AAC00D
:1028900067F00001686B696B800E6A6F3F0E6B6FAB
:1028A000D9EC36F004E2AD07D8A0AE0713D0A7C02C
:1028B00064F0A8C065F0A9C066F0AAC067F0686BB4
:1028C000696B200E6A6F410E6B6FD9EC36F002E334
:1028D000AD4BAE2BB651800AF36E800EF35C0D0E3D
:1028E000D8B4B55D1DE2B1C016F0B2C017F0B3C0E8
:1028F00018F0B4C019F0B55175EC29F040C01AF0C9
:1029000041C01BF042C01CF043C01DF0A8EC28F0F1
:1029100016C0B1F017C0B2F018C0B3F019C0B4F0CF
:10292000FDDA0A0ED8B4AD5D26E220EEB1F0DE503D
:10293000DE10DE10DE106AE0B1C049F0B2C04AF02D
:10294000B3C04BF0B4C04CF051EC30F049C090F043
:102950004AC091F04BC092F04CC093F000019351EB
:1029600090119111921152E1AE51800A800F020E26
:10297000D8B4AD5D4BE3A7C064F0A8C065F0A9C0B2
:1029800066F0AAC067F05F0E686F700E696F890EFF
:102990006A6F400E6B6FD9EC36F0F70ED8B0F80EB8
:1029A000AD27FF0EAE23AD519BEC25F040C0A7F044
:1029B00041C0A8F042C0A9F043C0AAF0B1C007F0DE
:1029C000B2C008F0B3C009F0B4C00AF0A7C00BF061
:1029D000A8C00CF0A9C00DF0AAC00EF0BEEC2CF0FF
:1029E00007C09AF008C09BF009C09CF00AC09DF097
:1029F0009AC0B7F09BC0B8F09CC0B9F09DC0BAF0C7
:102A00000001B16BB26BB36BB46B39D0B1C049F09C
:102A1000B2C04AF0B3C04BF0B4C04CF051EC30F04F
:102A200049C0B7F04AC0B8F04BC0B9F04CC0BAF0DA
:102A3000B1C025F0B2C026F0B3C027F0B4C028F072
:102A4000B7C011F0B8C012F0B9C013F0BAC014F09A
:102A500070EC39F011C029F012C02AF013C02BF02D
:102A600014C02CF055EC38F025C0B1F026C0B2F0FF
:102A700027C0B3F028C0B4F00001AD6BAE6B010EFF
:102A8000BB6FBB510A0A05E006DA22DA02E3BB2B70
:102A9000F8D7BBC090F0916B90BF9107B5519027CC
:102AA000B6519123AD519027AE5191239051AF5F14
:102AB0009151B05BB651B51103E0AF07D8A0B00794
:102AC000ABC090F0030E901708E0AF07D8A0B00796
:102AD00004D00FDA6C4B6D2BF8D7B05126DAD8B48E
:102AE000AF5DF7E2ABC090F0030E901737E06CC01B
:102AF000D9FF6DC0DAFF2D0EDF6E6C4B6D2B2ED023
:102B0000B7C007F0B8C008F0B9C009F0BAC00AF001
:102B1000C2D9CBD996EC34F007C09EF008C09FF024
:102B200009C0A0F00AC0A1F09EC014F09FC015F02B
:102B3000A0C016F0A1C017F0E3D9A7EC35F014C07F
:102B40009EF015C09FF016C0A0F017C0A1F09E51D6
:102B5000300F6CC0D9FF6DC0DAFFCED7BB070001C4
:102B6000BB290CE0CDD76CC0D9FF6DC0DAFF300EA9
:102B7000DF6E6C4B6D2BAD07D8A0AE07AE51D5D92B
:102B8000D8B4AD5DF0E2B651800A800F090ED8B41A
:102B9000B55D03E3080EBB6F02D0B5C0BBF0BB51FF
:102BA000B55F000EBBBFFF0EB65BBB5108E06CC04B
:102BB000D9FF6DC0DAFF2E0EDF6E6C4B6D2BBB5153
:102BC0009BEC25F040C096F041C097F042C098F0D1
:102BD00043C099F0B1C031F0B2C032F0B3C033F0AD
:102BE000B4C034F096C02DF097C02EF098C02FF0EE
:102BF00099C030F03FEC2DF02DC049F02EC04AF0C6
:102C00002FC04BF030C04CF051EC30F049C0B7F061
:102C10004AC0B8F04BC0B9F04CC0BAF04ED0B7C003
:102C200007F0B8C008F0B9C009F0BAC00AF033D94B
:102C30003CD996EC34F007C0A2F008C0A3F009C05C
:102C4000A4F00AC0A5F0A2C014F0A3C015F0A4C05F
:102C500016F0A5C017F054D9A7EC35F014C0A2F0B7
:102C600015C0A3F016C0A4F017C0A5F0A251300FF4
:102C70006CC0D9FF6DC0DAFFDF6E6C4B6D2BB7C037
:102C800014F0B8C015F0B9C016F0BAC017F003D9E7
:102C9000F5CF18F00900F5CF19F00900F5CF1AF0BB
:102CA0000A00F5CF1BF0A7EC35F014C0B7F015C043
:102CB000B8F016C0B9F017C0BAF00001BB07BB29C5
:102CC0000CE0ADD76CC0D9FF6DC0DAFF300EDF6EFF
:102CD0006C4B6D2BB507D8A0B607B651B51101E105
:102CE000CCD0F0D7A651D96EDA6ADECF90F0DDCF26
:102CF00091F090C0B7F091C0B8F0B96BBA6B020E0A
:102D0000A627B651B51107E1BA51B711B811B911DB
:102D100002E1B54BB62B010EBB6FBB510A0A05E0B1
:102D2000BAD8D6D802E3BB2BF8D7800EBBBF7F0E34
:102D3000906FB551BB5DB651800A905903E2B5C0A2
:102D4000BBF00FD0B651800A906FBB51B55D800EBD
:102D5000BBBF7F0E905905E2BB51B56FB66BB5BFD7
:102D6000B607B051AF1108E0ABC090F0030E90175A
:102D700003E0AF07D8A0B007ACAD10D0B651800AC1
:102D8000906FAF51B55DB051800A905905E2B551D1
:102D9000AF5FB651B05B02D0AF6BB06B800EBBBF04
:102DA0007F0E906FAF51BB5DB051800A905907E222
:102DB000BB51AF5F000EBBBFFF0EB05B02D0AF6B6D
:102DC000B06BB051AF110AE094D86C4B6D2BAF07CC
:102DD000D8A0B0070001B051AF11F6E1ABC090F040
:102DE000030E901742E06CC0D9FF6DC0DAFF2D0EC4
:102DF000DF6E6C4B6D2B39D0B5C090F0B6C091F042
:102E0000D89090379137D89090379137CF0E902542
:102E1000F66E110E9121F76E090047D8B7C007F082
:102E2000B8C008F0B9C009F0BAC00AF096EC34F0A6
:102E300007C014F008C015F009C016F00AC017F05A
:102E40005FD8A7EC35F014C092F015C093F016C00F
:102E500094F017C095F09251300FBB6F6CC0D9FF42
:102E60006DC0DAFFBBC0DFFFC4D7B507D8A0B60777
:102E70000001B529D8B4B629BFE16EC0F6FF46D827
:102E80000001BB67B3EF12F06CC0D9FF6DC0DAFF71
:102E9000000EDF6E000CBB51040DCF0EF324F66E56
:102EA000110EF420F76E09001200F5CF0BF00900A7
:102EB000F5CF0CF00900F5CF0DF00A00F5CF0EF0BC
:102EC00012006EC0F6FF6FC0F7FF0800F550120049
:102ED000F550B75D0900F550B8590900F550B959DA
:102EE0000900F550BA5912006FC0F7FF0800F550FD
:102EF00012006CC0D9FF6DC0DAFF200EDF6E200C0F
:102F00000A0E186E196A1A6A1B6A000C6FC0F7FF66
:102F10006E4B6F2B0800F5CFBBF012000001AE51D5
:102F2000800AF36E800EF35C1200800AF36E800E4E
:102F3000F35C010C010E0201666F5CD300F002012C
:102F40006287020E81EC3BF0696B0E0E87EC39F064
:102F5000000902E00E0E696F0C0E87EC39F00009D3
:102F60000DE00C0E696F0301030E086ED80E076E9C
:102F7000190E0A6E100E096EB6EC37F00D0E87ECC6
:102F800039F0000902E00D0E696F695101E127D3A4
:102F90006A6B020E76EC3BF000016D6BBE0E6C6F3F
:102FA000170E6F6F230E6E6F030E716FD80E706F5A
:102FB000AFEC12F0096ABE0E086E87EC36F0020123
:102FC0003F6B406B6A6B686B3F4B402B00016D6B36
:102FD000BE0E6C6F140E6F6FA80E6E6F3FC270F056
:102FE00040C271F0AFEC12F0096ABE0E086E87ECB9
:102FF00036F0190E1A6EB20E196E50EC33F0F2AEB6
:1030000004D0010E0001F86F02D00001F86BF29EAF
:10301000F2C0F4F0F3C0F5F002013E6B790E3D6FA3
:1030200027DB810EF35CF40ED8B4BC5D05E2F80535
:1030300001E01DD3F28E1BD3F2C0F4F0F3C0F5F023
:10304000F805D8B4F28E00F049EC3AF0000909E036
:10305000140E096E5D0E086E87EC36F00201682BC7
:1030600032D0130E096E4A0E086E87EC36F06BEC08
:103070003BF0F2AE04D0010E0001F86F02D0000167
:10308000F86BF29EF2C0F4F0F3C0F5F002013E6B73
:10309000830E3D6FEDDACE0EF35C200ED8B4BC5D2E
:1030A000C6E3F2C0F4F0F3C0F5F0F805D8B4F28E40
:1030B00000F00201354B362B020E686F050E3F5DA6
:1030C000000E405981E368670DD0130E096EDF0EC4
:1030D000086E87EC36F0020E81EC3BF002013D6B8E
:1030E0003E6BC5D26851030A4DE1180E1A6E860E6A
:1030F000196E50EC33F0F2AE04D0010E0001F86FFF
:1031000002D00001F86BF29EF2C0F4F0F3C0F5F0CB
:1031100002013E6B940E3D6FABDA810EF35CF40E50
:10312000D8B4BC5D84E3F2C0F4F0F3C0F5F0F80568
:10313000D8B4F28E00F0180E1A6E950E196E50EC7F
:1031400033F0F2AE04D0010E0001F86F02D000019E
:10315000F86BF29EF2C0F4F0F3C0F5F002013E6BA2
:10316000960E3D6F85DA810EF35CF40ED8B4BC5D2B
:1031700001E25DD7F2C0F4F0F3C0F5F0F805D8B481
:10318000F28E00F002013F6B406B0BEC3AF0170E31
:10319000096EDC0E086E70EC3AF0F2AE04D0010E4F
:1031A0000001F86F02D00001F86BF29EF2C0F4F05B
:1031B000F3C0F5F002013E6B9F0E3D6F59DA930E9E
:1031C000F35C880ED8B4BC5D01E231D7F2C0F4F0F4
:1031D000F3C0F5F0F805D8B4F28E00F00201628772
:1031E000B0EC36F0000908E102013F4B402B290EFC
:1031F0003F5D000E4059C9E3180E1A6E770E196E26
:1032000050EC33F00201676BF2AE04D0010E000106
:10321000F86F02D00001F86BF29EF2C0F4F0F3C038
:10322000F5F002013E6BA70E3D6F22DA810EF35CD2
:10323000F40ED8B4BC5D01E2FAD6F2C0F4F0F3C0EB
:10324000F5F0F805D8B4F28E00F049EC3AF0000938
:1032500003E11BDA6765D8D700F00EEC31F0180EE9
:103260001A6EFD0E196E50EC33F00201676BF2AE70
:1032700004D0010E0001F86F02D00001F86BF29E3D
:10328000F2C0F4F0F3C0F5F002013E6BAB0E3D6FFF
:10329000EFD9810EF35CF40ED8B4BC5D01E2C7D661
:1032A000F2C0F4F0F3C0F5F0F805D8B4F28E00F0F7
:1032B00049EC3AF0000903E1E8D96765D8D700F096
:1032C000BBEC32F0160E1A6E660E196E50EC33F02F
:1032D0000201676BF2AE04D0010E0001F86F02D05C
:1032E0000001F86BF29EF2C0F4F0F3C0F5F00201B9
:1032F0003E6BAF0E3D6FBCD9810EF35CF40ED8B4BB
:10330000BC5D01E294D6F2C0F4F0F3C0F5F0F8052C
:10331000D8B4F28E00F018EC32F0000905E1020199
:10332000672B140E6765D6D700F0020169510E0AAB
:1033300007E1770E096E400E086EF9EC38F0CED634
:103340000301030E0E6ECC0E0D6E6BEC31F00E50C1
:103350000D1037E1770E096E400E086EF9EC38F06B
:10336000150E096E0F0E086E87EC36F0770E096E9B
:10337000400E086EF9EC38F0F2AE04D0010E0001F8
:10338000F86F02D00001F86BF29EF2C0F4F0F3C0C7
:10339000F5F002013E6BBB0E3D6F6AD9830EF35C04
:1033A000E80ED8B4BC5D01E242D6F2C0F4F0F3C03E
:1033B000F5F0F805D8B4F28E00F0070E60EC3BF0A3
:1033C0008DD6030E81EC3BF0000E76EC3BF03E6BAD
:1033D000C40E3D6F000E46EC3BF0000901E047D102
:1033E00000F0030E46EC3BF0000901E19AD0F2AE8A
:1033F00004D0010E0001F86F02D00001F86BF29EBC
:10340000F2C0F4F0F3C0F5F002013E6BC80E3D6F60
:103410002FD9810EF35CF40ED8B4BC5D01E207D65F
:10342000F2C0F4F0F3C0F5F0F805D8B4F28E00F075
:10343000140E096E0D0E086E87EC36F0F2AE04D055
:10344000010E0001F86F02D00001F86BF29EF2C08D
:10345000F4F0F3C0F5F002013E6BCA0E3D6F08D9DF
:10346000830EF35CE80ED8B4BC5D01E2E0D5F2C097
:10347000F4F0F3C0F5F0F805D8B4F28E00F0170EB2
:10348000096E0F0E086E70EC3AF0F2AE04D0010E29
:103490000001F86F02D00001F86BF29EF2C0F4F068
:1034A000F3C0F5F002013E6BCD0E3D6FE1D8830E07
:1034B000F35CE80ED8B4BC5D01E2B9D5F2C0F4F01B
:1034C000F3C0F5F0F805D8B4F28E00F0770E096E6F
:1034D000400E086EF9EC38F0F2AE04D0010E000197
:1034E000F86F02D00001F86BF29EF2C0F4F0F3C066
:1034F000F5F002013E6BCF0E3D6FBAD8830EF35C40
:10350000E80ED8B4BC5D01E292D5F2C0F4F0F3C08D
:10351000F5F0F805D8B4F28E00F0070E60EC3BF041
:103520005ED0F2AE04D0010E0001F86F02D00001AF
:10353000F86BF29EF2C0F4F0F3C0F5F002013E6BBE
:10354000D40E3D6F95D8CE0EF35C200ED8B4BC5D82
:1035500001E26DD5F2C0F4F0F3C0F5F0F805D8B48F
:10356000F28E00F0150E096EA50E086E87EC36F08F
:1035700002016A2B020E6A650CD56BEC3BF0160E4D
:10358000096E930E086E87EC36F0770E096E400ECA
:10359000086EF9EC38F0F2AE04D0010E0001F86FBD
:1035A00002D00001F86BF29EF2C0F4F0F3C0F5F027
:1035B00002013E6BDD0E3D6F5BD8830EF35CE80EBF
:1035C000D8B4BC5D01E233D5F2C0F4F0F3C0F5F03D
:1035D000F805D8B4F28E00F0070E60EC3BF0666B95
:1035E000000E3E6FE70E3D6F0201666701D03FD0CF
:1035F00000F0A4D43DC2BCF03EC2BDF00001BD51FC
:1036000001E09CD4BC5101E199D4790A01E108D5CB
:10361000FA0A01E13FD5170A01E17ED5020A01E16C
:10362000A1D5090A01E1CAD5380A01E1FED50C0A83
:1036300001E12ED6040A01E15ED6140A01E1ADD6FD
:103640007F0A01E1C7D60C0A01E1E2D6020A01E1D4
:1036500006D7070A01E12AD7020A01E14ED71B0A61
:1036600001E170D7090AA8E03A0ABEE067D4120067
:103670000001F2C0BCF0F3C0BDF0F451BC5FF551E5
:10368000BD5BBD51800AF36E12000201672B050C71
:10369000010E02016B6F52D300F0000E46EC3BF0BE
:1036A000000901E179D3010E00016D6F000E6C6F0E
:1036B000180E6F6FC00E6E6FAFEC12F00101010EAD
:1036C0001A6E000E196E50EC33F00101FC6BF2AE75
:1036D00004D0010E0001F96F02D00001F96BF29ED7
:1036E000F2C0F6F0F3C0F7F00201426B310E416F09
:1036F00054DBD8B4BC5D05E2F90501E04DD3F28E90
:103700004BD3F2C0F6F0F3C0F7F0F905D8B4F28E5F
:1037100000F049EC3AF0000903E14EDBFC65D7D735
:1037200000F0010E00016D6F000E6C6F180E6F6FD0
:10373000590E6E6FAFEC12F00101010E1A6E000E01
:10374000196E50EC33F00101FC6BF2AE04D0010EA7
:103750000001F96F02D00001F96BF29EF2C0F6F0A1
:10376000F3C0F7F00201426B350E416F16DBD8B49F
:10377000BC5DC2E3F2C0F6F0F3C0F7F0F905D8B4CF
:10378000F28E00F049EC3AF0000905E10101FC2B52
:103790000A0EFC65DAD700F0130E096E7B0E086E78
:1037A00087EC36F0010E00016D6F000E6C6F160E87
:1037B0006F6F7D0E6E6FAFEC12F00101010E1A6E8D
:1037C000000E196E50EC33F00101FC6BF2AE04D028
:1037D000010E0001F96F02D00001F96BF29EF2C0F8
:1037E000F6F0F3C0F7F00201426B3A0E416FD5DA02
:1037F000D8B4BC5D81E3F2C0F6F0F3C0F7F0F90590
:10380000D8B4F28E00F049EC3AF0000905E101016C
:10381000FC2B0A0EFC65DAD700F00D6A140E0C6E54
:103820000F6A0001BE0E0E6E110E106E20EC3AF003
:103830000001CE6B010E6D6F000E6C6F110E6F6F7D
:10384000F70E6E6F716BBE0E706FAFEC12F0010170
:10385000010E1A6E000E196E50EC33F0F2AE04D069
:10386000010E0001F96F02D00001F96BF29EF2C067
:10387000F6F0F3C0F7F00201426B400E416F8DDAB3
:10388000D8B4BC5D01E238D7F2C0F6F0F3C0F7F06F
:10389000F905D8B4F28E00F0010E6D6F000E6C6F5A
:1038A000180E6F6FE70E6E6F030E716F000E706F64
:1038B000030E736F0C0E726FAFEC12F00101010E6C
:1038C0001A6E000E196E50EC33F0F2AE04D0010EF9
:1038D0000001F96F02D00001F96BF29EF2C0F6F020
:1038E000F3C0F7F00201426B440E416F56DAD8B4D0
:1038F000BC5D01E201D7F2C0F6F0F3C0F7F0F905C4
:10390000D8B4F28E00F0010E6D6F000E6C6F120EC7
:103910006F6F440E6E6F5AC370F05BC371F05CC37F
:1039200072F05DC373F05EC374F05FC375F060C383
:1039300076F061C377F062C378F063C379F064C353
:103940007AF065C37BF066C37CF067C37DF068C323
:103950007EF069C37FF06AC380F06BC381F06CC3F3
:1039600082F06DC383F06EC384F06FC385F070C3C3
:1039700086F071C387F072C388F073C389F074C393
:103980008AF075C38BF076C38CF077C38DF078C363
:103990008EF079C38FF0AFEC12F00101010E1A6EB8
:1039A000000E196E50EC33F0F2AE04D0010E00019F
:1039B000F96F02D00001F96BF29EF2C0F6F0F3C08D
:1039C000F7F00201426B490E416FE7D9D8B4BC5DF4
:1039D00001E292D6F2C0F6F0F3C0F7F0F905D8B4E0
:1039E000F28E00F0010E6D6F000E6C6F120E6F6F95
:1039F0008D0E6E6F3AC370F03BC371F03CC372F032
:103A00003DC373F03EC374F03FC375F040C376F01E
:103A100041C377F042C378F043C379F044C37AF0EE
:103A200045C37BF046C37CF047C37DF048C37EF0BE
:103A300049C37FF04AC380F04BC381F04CC382F08E
:103A40004DC383F04EC384F04FC385F050C386F05E
:103A500051C387F052C388F053C389F054C38AF02E
:103A600055C38BF056C38CF057C38DF058C38EF0FE
:103A700059C38FF0AFEC12F00101010E1A6E000E67
:103A8000196E50EC33F0F2AE04D0010E0001F96F64
:103A900002D00001F96BF29EF2C0F6F0F3C0F7F02D
:103AA0000201426B4E0E416F78D9D8B4BC5D01E281
:103AB00023D6F2C0F6F0F3C0F7F0F905D8B4F28ED1
:103AC00000F00D6A250E0C6E0F6AD20E0E6E020EFD
:103AD000106E20EC3AF00D6A270E0C6E0F6A000192
:103AE000D40E0E6E020E106E20EC3AF0010E0001A4
:103AF0006D6F000E6C6F130E6F6F140E6E6F030EF2
:103B0000716FD80E706F030E736F9A0E726F030E83
:103B1000756FCC0E746FE1C376F0E2C377F0E3C348
:103B200078F0E4C379F0D2C07AF0D3C07BF0D4C08F
:103B30007CF0D5C07DF0AFEC12F00101010E086EF3
:103B4000000E076E200E096E2B0E0A6E59EC39F02E
:103B5000010E1A6E000E196E50EC33F00101FC6B71
:103B6000F2AE04D0010E0001F96F02D00001F96B32
:103B7000F29EF2C0F6F0F3C0F7F00201426B570E6E
:103B8000416F0BD9D8B4BC5D01E2B6D5F2C0F6F0F6
:103B9000F3C0F7F0F905D8B4F28E00F049EC3AF032
:103BA000000903E109D9FC65DBD700F0010E000133
:103BB0006D6F000E6C6F170E6F6FB90E6E6FAFECFE
:103BC00012F00101010E1A6E000E196E50EC33F066
:103BD00002016C6B0101FC6BF2AE04D0010E00011E
:103BE000F96F02D00001F96BF29EF2C0F6F0F3C05B
:103BF000F7F00201426B5B0E416FCFD8D8B4BC5DC9
:103C000001E27AD5F2C0F6F0F3C0F7F0F905D8B4C6
:103C1000F28E00F0CAEC39F002016C6F6C5105E1D4
:103C20000101FC2B0E0EFC65D7D700F0010E000140
:103C30006D6F000E6C6F180E6F6F4A0E6E6FAFECEB
:103C400012F00101010E1A6E000E196E50EC33F0E5
:103C50000101FC6BF2AE04D0010E0001F96F02D03D
:103C60000001F96BF29EF2C0F6F0F3C0F7F002012A
:103C7000426B5F0E416F91D8D8B4BC5D01E23CD578
:103C8000F2C0F6F0F3C0F7F0F905D8B4F28E00F008
:103C900049EC3AF0000903E18FD8FC65DBD700F06E
:103CA000010E00016D6F000E6C6F180E6F6FB20E7B
:103CB0006E6FAFEC12F00101010E1A6E000E196E5C
:103CC00050EC33F00101FC6BF2AE04D0010E0001A8
:103CD000F96F02D00001F96BF29EF2C0F6F0F3C06A
:103CE000F7F00201426B630E416F57D8D8B4BC5D48
:103CF00001E202D5F2C0F6F0F3C0F7F0F905D8B44E
:103D0000F28E00F049EC3AF0000903E155D8FC6569
:103D1000DBD700F002016C5103E0030E76EC3BF0C0
:103D2000000E81EC3BF06B6B000E426F670E416F33
:103D300002016B6701D030D000F0AED441C2BCF0BC
:103D400042C2BDF00001BD5101E0A6D4BC5101E169
:103D5000A3D4310A01E1CCD4040A01E107D50F0A4A
:103D600001E145D57A0A01E18AD5040A01E1BED50F
:103D70000D0A01E12AD6070A01E196D6190A01E1E6
:103D800000D70C0A01E139D7040A01E174D73C0AD3
:103D9000ACE0040ACDE080D412000001F2C0BCF017
:103DA000F3C0BDF0F651BC5FF751BD5BBD51800A59
:103DB000F36E810EF35CF40C0101FC2B060C020E79
:103DC00046EC3BF0000901E0B0D196D100F00201D1
:103DD0004C6B1B0E4B6FC8EC27F0000901E1A5D11D
:103DE00000F0F2AE04D0010E0101FE6F02D001011D
:103DF000FE6BF29EF2C049F2F3C04AF202014C6B34
:103E00001C0E4B6F93D9D8B4BC5D06E20101FE05D0
:103E100001E08BD1F28E89D1A2D9D8B4F28E00F014
:103E2000C8EC27F0F2AE04D0010E0101FE6F02D003
:103E30000101FE6BF29EF2C049F2F3C04AF20201A8
:103E40004C6B1F0E4B6F72D9D8B4BC5DDFE387D9C2
:103E5000D8B4F28E00F00201736B190E086ECB0E0F
:103E60008FD992EC37F00850071001E0BAD0190E44
:103E7000086EAB0E6DD992EC37F00850071047E191
:103E800075D93AC370F03BC371F03CC372F03DC3C7
:103E900073F03EC374F03FC375F040C376F041C386
:103EA00077F042C378F043C379F044C37AF045C356
:103EB0007BF046C37CF047C37DF048C37EF049C326
:103EC0007FF04AC380F04BC381F04CC382F04DC3F6
:103ED00083F04EC384F04FC385F050C386F051C3C6
:103EE00087F052C388F053C389F054C38AF055C396
:103EF0008BF056C38CF057C38DF058C38EF059C366
:103F00008FF0AFEC12F0010E0201736F8BD0190E1F
:103F1000086E200E1DD992EC37F00850071044E1CE
:103F200025D95AC370F05BC371F05CC372F05DC3F6
:103F300073F05EC374F05FC375F060C376F061C365
:103F400077F062C378F063C379F064C37AF065C335
:103F50007BF066C37CF067C37DF068C37EF069C305
:103F60007FF06AC380F06BC381F06CC382F06DC3D5
:103F700083F06EC384F06FC385F070C386F071C3A5
:103F800087F072C388F073C389F074C38AF075C375
:103F90008BF076C38CF077C38DF078C38EF079C345
:103FA0008FF0AFEC12F0AFD7190E086EDA0ED0D842
:103FB00092EC37F00850071035E1010E00016D6FEB
:103FC000000E6C6F180E6F6FF20E6E6FE1C370F023
:103FD000E2C371F0E3C372F0E4C373F0AFEC12F02C
:103FE00092D7190E086E850ECBD892EC37F0085098
:103FF000071018E1190E086EC30EAAD892EC37F01C
:10400000085007100FE0190E086EC70EA1D892ECE9
:1040100037F00850071006E0190E086EDA0E98D82F
:1040200092EC37F00201730560E1736B010E000141
:104030006D6F640E6C6F180E6F6F680E6E6F030EEF
:10404000716FA80E706FAFEC12F00101010E1A6EC5
:10405000640E196E50EC33F0F2AE04D0010E010183
:10406000FE6F02D00101FE6BF29EF2C049F2F3C076
:104070004AF202014C6B440E4B6F58D8D8B4BC5D69
:1040800001E2C4D66CD8D8B4F28E00F0010E1A6EDC
:10409000000E196E50EC33F01A0EA6EC3BF0020144
:1040A000726BF2AE04D0010E0101FE6F02D001016D
:1040B000FE6BF29EF2C049F2F3C04AF202014C6B71
:1040C000490E4B6F33D8D8B4BC5D01E29FD647D8B8
:1040D000D8B4F28E00F049EC3AF0000905E1020193
:1040E000722B140E7265DDD700F0770E096E400E4C
:1040F000086EF9EC38F06AD64BC2BCF04CC2BDF089
:104100000001BD5101E062D6BC5101E15FD61B0A3E
:1041100001E161D6070A01E175D6030A01E193D6F0
:104120005B0AABE00D0ACEE051D61200F2C0BCF043
:10413000F3C0BDF0020149510001BC5F02014A51C8
:104140000001BD5BBD51800AF36E810EF35CF40C7F
:10415000076E0301030E0A6EC10E096E1200F2C053
:1041600049F2F3C04AF20101FE051200010E0001FE
:104170006D6F000E6C6F130E6F6F7E0E6E6F120000
:10418000076E0301030E0A6EB60E096E1200010ED1
:10419000756FABD100F002016283050E46EC3BF077
:1041A000000901E197D1766B53EC3BF002017651A7
:1041B00012EC39F0F2AE03D0010E746F01D0746BC3
:1041C000F29EF2C04DF2F3C04EF2506B330E4F6FC1
:1041D000F2C072F0F3C073F002014D510001725F42
:1041E00002014E510001735B7351800AF36E800E21
:1041F000F35CFA0ED8B4725D06E20201740501E0C8
:1042000085D1F28E83D1F2C04DF2F3C04EF202019D
:104210007405D8B4F28E00F00001616B100E606F6F
:10422000000E626BBDEC2DF060C074F061C075F0E3
:1042300062C076F063C077F00001616B100E606FB2
:10424000010E626FBDEC2DF060C078F061C079F0B6
:1042500062C07AF063C07BF00001616B100E606F8A
:10426000020E626FBDEC2DF060C07CF061C07DF08D
:1042700062C07EF063C07FF074C029F075C02AF080
:1042800076C02BF077C02CF0256A266A200E276EA8
:10429000400E286E55EC38F025C040F026C041F0A5
:1042A00027C042F028C043F0446A400E456E1C0E01
:1042B000466E460E476EA6EC2EF040C080F041C020
:1042C00081F042C082F043C083F07CC029F07DC001
:1042D0002AF07EC02BF07FC02CF078C025F079C08A
:1042E00026F07AC027F07BC028F055EC38F025C0C6
:1042F00040F026C041F027C042F028C043F080C003
:1043000044F081C045F082C046F083C047F0A6EC7F
:104310002EF040C060F041C061F042C062F043C086
:1043200063F0FAEC37F060C086F061C087F062C0DD
:1043300088F063C089F089AF04D0866B876B886B87
:10434000896BF30E646F4F0E656FC30E666F470E79
:10435000676F86C068F087C069F088C06AF089C05E
:104360006BF0D9EC36F008E2F30E866F4F0E876FD4
:10437000C30E886F470E896F02017651C8D886C078
:10438000DEFF87C0DEFF88C0DEFF89C0DEFFBD51D3
:104390000BE07651040DC3D886C0DEFF87C0DEFF78
:1043A00088C0DEFF89C0DEFF0201762B070E76652E
:1043B000FBD6BD6B0D6A270E0C6E0F6A0001840ED2
:1043C0000E6E020E106E20EC3AF000018551841141
:1043D0007EE08A6B84C011F085C012F0F6EC39F0F3
:1043E00011C064F012C065F013C066F014C067F02D
:1043F00000018A518CD8DECF44F0DECF45F0DECF0D
:1044000046F0DECF47F0316A326AC80E336E420E94
:10441000346E8A517CD8DECF29F0DECF2AF0DECF91
:104420002BF0DECF2CF08A51040D030178D8DECFBB
:1044300025F0DECF26F0DECF27F0DECF28F055ECDA
:1044400038F025C02DF026C02EF027C02FF028C050
:1044500030F03FEC2DF02DC040F02EC041F02FC0C9
:1044600042F030C043F0A6EC2EF040C060F041C0F6
:1044700061F042C062F043C063F0FAEC37F060C014
:1044800068F061C069F062C06AF063C06BF0D9EC9B
:1044900036F018E2100E60EC3BF000018A5137D87C
:1044A0008A51040D7A0EF324E16E030EF420E26EBD
:1044B000DECFE6FFDECFE6FFDECFE6FFDDCFE5FFB6
:1044C000E552E55200018A2B070E8A6583D7050E57
:1044D00081EC3BF0756B000E506F5B0E4F6F02016D
:1044E000756701D013D000F055D64FC272F050C29C
:1044F00073F00001735101E04DD6725101E14AD6CB
:10450000330A01E165D6680AEAE044D61200040DD8
:104510005A0EF324D96E030EF420DA6E12007A0ECE
:10452000F324D96E030EF420DA6E1200020192A178
:1045300002D0000E95D18F6B086A0E0E076E33EC19
:1045400036F001D08F2B57EC36F0DF50200AFAE01E
:104550000E6603D0906B010E83D1020E086E930E8F
:10456000076E33EC36F001D08F2B57EC36F0DF506E
:10457000200AFAE0020E086EA70E076E33EC36F042
:10458000086A0E0E076E190E0A6EA80E096E0C6AE6
:10459000040E0B6E74EC35F0085007100BE1086A3E
:1045A0000E0E076E35EC3AF00750040A081002E1CF
:1045B000030E53D1086A0E0E076E190E0A6E9E0E78
:1045C000096E0C6A040E0B6E74EC35F0085007107F
:1045D0000BE1086A0E0E076E35EC3AF00750040A3C
:1045E000081002E1040E39D1086A0E0E076E190E8A
:1045F0000A6E830E096E0C6A050E0B6E74EC35F0B4
:10460000085007100BE1086A0E0E076E35EC3AF001
:104610000750050A081002E1050E1FD1086A0E0EA8
:10462000076E190E0A6E460E096E0C6A060E0B6EA8
:1046300074EC35F0085007100BE1086A0E0E076E97
:1046400035EC3AF00750060A081002E1080E05D1D1
:10465000086A0E0E076E190E0A6E7D0E096E0C6A40
:10466000050E0B6E74EC35F0085007100BE1086A6C
:104670000E0E076E35EC3AF00750050A081002E1FD
:10468000010EEBD0086A0E0E076E190E0A6EAD0E03
:10469000096E0C6A040E0B6E74EC35F008500710AE
:1046A0000BE1086A0E0E076E35EC3AF00750040A6B
:1046B000081002E1020ED1D0086A0E0E076E190E24
:1046C0000A6EA30E096E0C6A040E0B6E74EC35F0C4
:1046D000085007100BE1086A0E0E076E35EC3AF031
:1046E0000750040A081002E10B0EB7D0086A0E0E3C
:1046F000076E190E0A6E5F0E096E0C6A050E0B6EC0
:1047000074EC35F0085007100BE1086A0E0E076EC6
:1047100035EC3AF00750050A081002E10C0E9DD066
:10472000086A0E0E076E190E0A6E650E096E0C6A87
:10473000050E0B6E74EC35F0085007100BE1086A9B
:104740000E0E076E35EC3AF00750050A081002E12C
:104750000F0E83D0086A0E0E076E190E0A6E6B0ECE
:10476000096E0C6A050E0B6E74EC35F008500710DC
:104770000BE1086A0E0E076E35EC3AF00750050A99
:10478000081002E1060E69D0086A0E0E076E190EB7
:104790000A6E710E096E0C6A050E0B6E74EC35F024
:1047A000085007100BE1086A0E0E076E35EC3AF060
:1047B0000750050A081002E10E0E4FD0086A0E0ECF
:1047C000076E190E0A6E770E096E0C6A050E0B6ED7
:1047D00074EC35F0085007100BE1086A0E0E076EF6
:1047E00035EC3AF00750050A081002E1090E35D001
:1047F000086A0E0E076E190E0A6E850E096E0C6A97
:10480000030E0B6E74EC35F0085007100BE1086ACC
:104810000E0E076E35EC3AF00750030A081002E15D
:10482000110E1BD0086A0E0E076E190E0A6ECB0E03
:10483000096E0C6A030E0B6E74EC35F0085007100D
:104840000BE1086A0E0E076E35EC3AF00750030ACA
:10485000081002E1120E01D0130E0201906F7BD6F8
:104860001200100E87EC39F000090FE00D0E60EC1D
:104870003BF00301030E086ED80E076E190E0A6E88
:10488000190E096EB6EC37F02CD1070E87EC39F013
:1048900000092CE0040E76EC3BF00D6A290E42D99B
:1048A00020EC3AF0010E00016D6F000E6C6F140EDB
:1048B0006F6F830E6E6F3CC170F03DC171F0AFEC55
:1048C00012F00101010E1A6E000E196E50EC33F059
:1048D0003CC107F03DC108F00A6A060E096E83EC80
:1048E0003AF007C059F208C05AF2FBD0010E796FB6
:1048F000DFD000F002017A675DD0030E60EC3BF080
:10490000060E76EC3BF0050E76EC3BF0070E76ECEF
:104910003BF0130E096E7B0E086E87EC36F0F2AE9C
:1049200004D0010E0101FF6F02D00101FF6BEAD834
:104930001C0E576FD7D8F50EF35C300ED8B4BC5DA3
:1049400006E20101FF0501E0CCD0F28ECAD0E3D827
:10495000D8B4F28E00F0F2AE03D0010EFF6F02D099
:104960000101FF6BCFD81D0E576FBCD8F50EF35C5D
:10497000300ED8B4BC5DE5E3CED8D8B4F28E00F0EA
:10498000020E46EC3BF000090EE10D0E60EC3BF030
:104990000301030E086ED80E076E190E0A6E220E62
:1049A000096EB6EC37F002015B6B5C6B5D6B5E6BA6
:1049B000010E7A6FF2AE04D0010E0101FF6F02D03A
:1049C0000101FF6B9FD82C0E576F8CD8A70EF35C9C
:1049D000100ED8B4BC5DB5E39ED8D8B4F28E00F00A
:1049E00002015B4B5C2B5D4B5E2B060E5B5D000E8C
:1049F0005C590BE35B6B5C6B060E76EC3BF0050ED3
:104A000076EC3BF0070E76EC3BF00D6A250E8AD86B
:104A100020EC3AF03CC107F03DC108F00A6A060EEE
:104A2000096E83EC3AF007C03CF108C03DF101018A
:104A30003D513C1131E03C5102015D5D01013D51B0
:104A400002015E5910E35D6B5E6B0D0E60EC3BF096
:104A50000301030E086ED80E076E190E0A6E890E3A
:104A6000096EB6EC37F0040E46EC3BF0000902E1AB
:104A7000596B5A6B5A5159110FE05907D8A05A0770
:104A80005A51591109E1140E096EEF0E086E87ECA8
:104A900036F0060E60EC3BF00201796B010E586FA8
:104AA000530E576F0201796701D01BD000F021D758
:104AB00057C2BCF058C2BDF00001BD5103E0010A6D
:104AC00003E017D7BC5115D7BC511C0A01E132D7FE
:104AD000010A01E14AD7310A01E177D77F0AE2E012
:104AE00008D71200F2C0BCF0F3C0BDF0020155516E
:104AF0000001BC5F020156510001BD5BBD51800A3F
:104B0000F36E1200F29EF2C055F2F3C056F2010E9F
:104B10000201586F010CF2C055F2F3C056F20101C8
:104B2000FF0512000C6E0101010E0F6E3C0E0E6EA1
:104B3000020E106E020C486E48AE64D0486C4850AD
:104B4000800A120F37E3106A0A0E0F6E0A6A640EAB
:104B500028D907BE080695EC33F007C00DF008C051
:104B60000EF006EC33F0E3D8550E0D24F66E110E60
:104B70000E20C1D8106A640E19D90DBE0E0606ECBF
:104B800033F0D890FDD8550E0D24F66E110E0E2080
:104B9000C0D83FEC2DF0DDD807BE080695EC33F009
:104BA000D1D8550E0724F66E110E0820A4D83FEC7C
:104BB0002DF083D04850800A750F1DE3106A0A0E4D
:104BC000F5D80DBE0E0606EC33F0B1D8550E0D2407
:104BD000F66E110E0E209DD8DDD807BE080695ECA6
:104BE00033F0B0D8550E0724F66E110E082083D886
:104BF0003FEC2DF062D04850040D550EF324F66EB4
:104C0000110E6AD04850800A120F37E3106A0A0E5C
:104C10000F6E0A6A640EC5D807BE080695EC33F01D
:104C200007C00DF008C00EF006EC33F080D8890EF6
:104C30000D24F66E110E0E205ED8106A640EB6D8E2
:104C40000DBE0E0606EC33F0D8909AD8890E0D24CE
:104C5000F66E110E0E205DD83FEC2DF07AD807BE0F
:104C6000080695EC33F06ED8890E0724F66E110E07
:104C7000082041D83FEC2DF020D04850800A750F15
:104C800025E3106A0A0E92D80DBE0E0606EC33F02C
:104C90004ED8890E0D24F66E110E0E203AD87AD811
:104CA00007BE080695EC33F04DD8890E0724F66E42
:104CB000110E082020D83FEC2DF02DC040F02EC062
:104CC00041F02FC042F030C043F014D04850040DE2
:104CD000890EF324F66E110EF420F76E0900F5CF5D
:104CE00040F00900F5CF41F00900F5CF42F00A008D
:104CF000F5CF43F01200F76E0900F5CF31F009004F
:104D0000F5CF32F00900F5CF33F00A00F5CF34F0DB
:104D10001200F76E0900F5CF2DF00900F5CF2EF047
:104D20000900F5CF2FF00A00F5CF30F01200D8902F
:104D30000D360E36D8900D360E36240E0D26000E8A
:104D40000E22000CD89007360836D8900736083661
:104D500012002DC044F02EC045F02FC046F030C0E8
:104D600047F044C02DF045C02EF046C02FF047C09C
:104D700030F00A6A0A0E096E4850076E086A12007F
:104D80000D360E36D8900D360E36480E0D26000E16
:104D90000E22000C0A6A0A0E096E4850076E086A55
:104DA0001200096E4850076E086A12000F6E4850D4
:104DB0000D6E0E6A120015C018F092A1E8D092A5EF
:104DC00039D091515B0A33E11850410A14E10401D2
:104DD0005251501909E05251040A03E151C452F4EE
:104DE00003D05205030B526F14C00DF013C00CF02A
:104DF00057EC34F01CD01850420A19E1040152510A
:104E0000040A0FE05251511902E05229EBD714C0A5
:104E100009F013C008F0D8EC35F0040E0401526F0D
:104E200006D014C009F013C008F0D8EC35F0020128
:104E30009295ADD092A305D018C091F2929392852D
:104E4000A6D018501B0A02E19283A1D01850080A7C
:104E500028E18F5101E19BD08F0701D80AD00500CE
:104E6000FA6E1350FD6E1450FE6EF850FF6EFA503D
:104E7000080C01D80AD00500FA6E1350FD6E1450CC
:104E8000FE6EF850FF6EFA50200C01D880D005005D
:104E9000FA6E1350FD6E1450FE6EF850FF6EFA500D
:104EA000080C18500D0A03E018500A0A43E101D813
:104EB0000AD00500FA6E1350FD6E1450FE6EF850C5
:104EC000FF6EFA500D0C01D80AD00500FA6E13508F
:104ED000FD6E1450FE6EF850FF6EFA500A0C02017F
:104EE00057EC36F0DF6A929192939295040E04018A
:104EF000526F5051040A03E1506B516B0BD0512992
:104F0000030B516F505124EE51F0DF6203D0502952
:104F1000030B506F5151140D000EF324076E040E55
:104F2000F420086E0201020E0A6E7B0E096EB6ECCA
:104F300037F02DD01F0E18642AD07F0E185C27E2A0
:104F4000600E186403D07A0E186404D018C016F0EE
:104F5000176A06D0E00E1824166E176AFF0E172285
:104F600016C018F0140E8F5D05E257EC36F018C02D
:104F7000DFFF8F2B01D80BD00500FA6E1350FD6EAA
:104F80001450FE6EF850FF6EFA50185012001200C6
:104F90000801080E086E000E076E190E0A6E590EF3
:104FA000096E0C6A050E0B6E74EC35F00850071094
:104FB00002E0000EB0D00E0E156E050E166E02D079
:104FC000162A00F0BCD80FC007F010C008F0190E68
:104FD0000A6E990E096E0C6A040E0B6E74EC35F0B5
:104FE00008500710EDE10301030E086EA80E076ECE
:104FF000A6D80FC009F010C00AF015C00BF00C6A5B
:1050000007EC36F0A70E1524D96EDA6A030EDA2201
:10501000DF6A00F000F0186A176A01D0182A7CD8FD
:1050200037E07AD8200A34E1F9D776D8200A03E0AD
:10503000090E176408D0B60E1724D96EDA6A030E6B
:10504000DA22DF6A29D0000E6FD8DF6405D0000EA7
:10505000182470D8DF640AD0000E1824D96EDA6ADA
:10506000050EDA22DF50116E126A08D055D80F6E85
:10507000E00E0F24116E126AFF0E1222B60E1724D4
:10508000D96EDA6A030EDA2211C0DFFF182A172A56
:1050900043D802E0CAD7182A3FD803E03DD8200AF7
:1050A000FAE0176A32D0000E3FD8DF6405D0000E58
:1050B000182440D8DF640AD0000E1824D96EDA6AAA
:1050C000050EDA22DF50136E146A08D025D80F6E51
:1050D000E00E0F24136E146AFF0E14220301C10E9A
:1050E0001724D96EDA6A030EDA2213C0DFFF182AFA
:1050F000172A090E176409D0C10E1724D96EDA6A6F
:10510000030EDA22000EDF6E03D0050105D8CBE1D5
:1051100000F000F0010E1200000E1824D96EDA6AB9
:10512000050EDA22DF5012001824D96EDA6A050E55
:10513000DA22600CD96EDA6A050EDA227A0C000ED9
:105140000F6E080E106E16500F26000E1022000C67
:1051500016C01EF017C01FF018C020F019C021F0B3
:10516000180E01D0BCD8E82EFDD71E50246E1AC0F0
:105170001EF01BC01FF01CC020F01DC021F0180E37
:1051800001D0ADD8E82EFDD71E50236E245009E083
:105190002350245C0FE22450235C1E6E210E1E5C03
:1051A00009E31AC016F01BC017F01CC018F01DC090
:1051B00019F08BD0235009E02450235C0FE22350D8
:1051C000245C1E6E210E1E5C09E316C016F017C08B
:1051D00017F018C018F019C019F077D0060E226E1B
:1051E00019BE228E1DBE228C188E196A1C8E1D6A55
:1051F0002350245C1AE2D8901A361B361C361D3612
:105200002306235024180DE0220622C01EF0070EAC
:105210001E1607E0F0D7D89019321832173216321E
:10522000242A23502462F7D71CD02450235C19E28F
:10523000D8901636173618361936240623502418F7
:105240000DE0220622C01EF0070E1E1607E0F0D762
:10525000D8901D321C321B321A32232A235024626A
:10526000F7D722AE09D0161E171E181E191E162AB1
:10527000000E17221822192222AC02D01A1E26D89C
:10528000226A16501A2617501B2218501C22195039
:105290001D221DAE04D01A1E19D8010E226E1AC08E
:1052A00007F01BC008F01CC009F01DC00AF024C0A4
:1052B0000BF022C00CF0B0EC30F007C016F008C0C4
:1052C00017F009C018F00AC019F012001B1E1C1EAE
:1052D0001D1E1A2A000E1B221C221D22000CD89013
:1052E000213220321F321E321200506E6D0E506479
:1052F0005DD00A0E0B6E640E076E50505DEC3AF0F6
:10530000C5EC38F0446E456AD89044364536D8909E
:1053100044364536240E4426000E4522550E4424BC
:10532000F66E110E45207BEC26F0640E0B6E50508D
:10533000C5EC38F099D8480E8ED889EC26F03FECB1
:105340002DF02DC04CF02EC04DF02FC04EF030C0CF
:105350004FF00A0E076E50505DEC3AF0446E456A0D
:10536000D8906ED87BEC26F04CC02DF04DC02EF0BE
:105370004EC02FF04FC030F03FEC2DF02DC048F064
:105380002EC049F02FC04AF030C04BF048C02DF07D
:1053900049C02EF04AC02FF04BC030F0316A326A5B
:1053A000336A3F0E346E3FEC2DF041D00A0E50644C
:1053B0002ED0076E50505DEC3AF0446E456AD8909E
:1053C0003FD87BEC26F00A0E0B6E5050C5EC38F03F
:1053D0004BD8240E40D889EC26F03FEC2DF02DC0A0
:1053E0004CF02EC04DF02FC04EF030C04FF04CC0EE
:1053F0002DF04DC02EF04EC02FF04FC030F0316A6E
:10540000326A336A3F0E346E3FEC2DF010D05050AC
:10541000040D550EF324F66E110EF42089EC26F0DF
:10542000316A326A336A3F0E346E3FEC2DF02DC084
:1054300040F02EC041F02FC042F030C043F01200C7
:1054400044364536D89044364536550E4424F66EDB
:10545000110E452012004626000E4722550E462406
:10546000F66E110E47201200466E476AD8904636F7
:105470004736D890463647361200010E6E6FADD0D3
:1054800000F002016283070E46EC3BF0000901E1E7
:105490009AD0A094A00ED26E050E6F6FD298F00E27
:1054A000D2166F510F0BD212D288A194F2AE03D054
:1054B000010E6D6F01D06D6BF29EF2C043F2F3C02E
:1054C00044F2466B8A0E456FF2C008F0F3C009F053
:1054D00002014351085E4451095A0950800AF36E93
:1054E000800EF35CFA0ED8B4085C05E26D0501E0AD
:1054F00084D0F28E82D0F2C043F2F3C044F26D0544
:10550000D8B4F28E00F0A1A403D002016F2B58D0C2
:10551000D29837D00A6A0B6A0C6A0D6A45D0C30E5E
:105520000A6EF50E0B6E380E28D0140E0A6EAE0EF3
:105530000B6E470E22D0C30E0A6EF50E0B6E580E80
:105540001CD0330E0A6E0B6E630E17D0A40E0A6EBB
:10555000700E0B6E6D0E11D09A0E0A6E990E0B6EB8
:10556000790E0BD01F0E0A6E850E0B6E830E05D0C2
:105570005C0E0A6E8F0E0B6E8A0E0C6E400E0D6E58
:1055800013D002016F51070ACAE00F0ACEE0010AE8
:10559000D2E0030AD6E0010AD9E0070ADDE0010AF9
:1055A000E1E0030AE5E0B6D7070E81EC3BF00AC064
:1055B000E1F30BC0E2F30CC0E3F30DC0E4F303D05E
:1055C0000E0E6F656BD76E6B000E466FB60E456F95
:1055D0006E6701D012D000F053D745C208F046C222
:1055E00009F0095001E04CD7085001E149D78A0A77
:1055F00001E16AD73C0AECE043D7120055C044F001
:10560000010E456E442A02D0D8904536442EFCD770
:10561000F0C0D9FFF1C0DAFF4550DF1284EC2FF063
:10562000000924E0CC0E30EC2CF0BE0E30EC2CF057
:105630004C6A4D6A33EC2EF0446E79D844C0DFFFDB
:1056400076D8DF504C18446E456A550E4424F66EE9
:10565000100E4520F76E0800F5CF4CF04D2A080ECD
:105660004D64E8D74C6602D02F6708D0000E406E1C
:10567000416E700E426EC20E436E58D0285129C240
:1056800044F0456A44C045F0446A4410466E4550B3
:10569000476E0F0E4614116E126A6EEC37F011C091
:1056A0002DF012C02EF013C02FF014C030F0316A6C
:1056B000326A800E336E3D0E346E3FEC2DF02DC0FD
:1056C00048F02EC049F02FC04AF030C04BF048C01F
:1056D00016F049C017F04AC018F04BC019F0040E7C
:1056E000446E473447324632442EFBD746C011F051
:1056F00047C012F06EEC37F011C01AF012C01BF068
:1057000013C01CF014C01DF0A8EC28F016C048F01F
:1057100017C049F018C04AF019C04BF048C040F01B
:1057200049C041F04AC042F04BC043F01200280E7D
:105730004D24D96EDA6A020EDA221200010E02013D
:10574000786F7DD000F002016281060E46EC3BF0DE
:1057500000096AE00F0E086E970E076E0F0E0A6EB4
:105760008E0E096E0F0E0C6E850E0B6E1CEC3BF050
:10577000D1EC34F0F2AE04D0010E0201776F02D00A
:105780000201776BF29EF2C051F2F3C052F2546BF9
:10579000110E536FF2C060F0F3C061F0020151517D
:1057A0000001605F020152510001615B6151800A9A
:1057B000F36E830EF35C200ED8B4605D05E2020147
:1057C00077054DE1F28E4BD0F2C051F2F3C052F2A8
:1057D00002017705D8B4F28E00F00001646B6451C9
:1057E000EEEC3AF04EC060F04FC061F050C062F095
:1057F00051C063F000016451040D3A0EF324D96ED8
:10580000030EF420DA6E60C0DEFF61C0DEFF62C00E
:10581000DEFF63C0DDFFD906D906642B070E646581
:10582000DED7060E81EC3BF0786B000E546F190E3C
:10583000536F0201786701D012D000F083D753C2B2
:1058400060F054C261F00001615101E07BD760510A
:1058500001E178D7110A9EE0080AEBE073D7120045
:105860000C6E000EF2BE010E0201606FF29E80D837
:1058700002D0D8900A36092EFCD753C0D9FF54C0A5
:10588000DAFF0A50DF120D6A73D802D0D8900A36B8
:10589000092EFCD70A1C0B6EF0C0D9FFF1C0DAFF4D
:1058A0000B50DF1665D802D0D8900A36092EFCD7E7
:1058B0000A1C0B6E53C0D9FF54C0DAFF0B50DF1621
:1058C00000F000F00DC009F0010E0A6E092A02D0A6
:1058D000D8900A36092EFCD70A500C140DE048D88F
:1058E00002D0D8900A36092EFCD753C0D9FF54C035
:1058F000DAFF0A50DF120ED03BD802D0D8900A3619
:10590000092EFCD70A1C0B6E53C0D9FF54C0DAFF16
:105910000B50DF16086A170E076E8CEC3BF028D888
:1059200002D0D8900A36092EFCD753C0D9FF54C0F4
:10593000DAFF0A50DF12086A100E076E8CEC3BF09B
:105940000D2A070E0D64A0D7020160A101D0F28ECE
:1059500060B101D0F29E0CD802D0D8900A36092E40
:10596000FCD7F0C0D9FFF1C0DAFF0A50DF121200F5
:1059700055C009F0010E0A6E092A010C07C00FF08C
:1059800008C010F009C011F00AC012F0180E01D0C2
:1059900070D8E82EFDD70F50186E186605D0076A2C
:1059A000086A096A0A6A64D00BC00FF00CC010F0D4
:1059B0000DC011F00EC012F0180E01D05AD8E82E0A
:1059C000FDD70F50176E176601D0E9D7098E0A6A06
:1059D0000D8E0E6A136A146A156A166A7F0E185EB7
:1059E0001750A00F185E200E176ED890133614367D
:1059F000153616360B50075C0C5008580D500958D8
:105A00000E500A5809E30B50075E0C50085A0D500F
:105A1000095A0E500A5A1380D890073608360936AC
:105A20000A36172EE2D718AE0FD01850800A0F6E24
:105A3000E10E800A0F5CB3E3D890163215321432AF
:105A40001332183EF9D70CD01F0E186407D0A7D711
:105A5000D890133614361536163618061866F8D749
:105A600013C007F014C008F015C009F016C00AF002
:105A70001200D8901232113210320F3212002DC0A3
:105A800035F02EC036F02FC037F030C038F0180E89
:105A900001D06DD8E82EFDD73550396E396601D06A
:105AA00011D031C035F032C036F033C037F034C0D9
:105AB00038F0180E01D05BD8E82EFDD735503F6E78
:105AC0003F6605D02D6A2E6A2F6A306A40D03F505B
:105AD0007B0F392630C03FF034503F1A800E3F16FE
:105AE0002F8E338E346A3A6A3B6A3C6A3D6A070EEF
:105AF0003E6E2DA002D031502BD832D831363236FE
:105B0000333634363E2EF5D7110E3E6E2DA002D020
:105B100031501ED825D83D323C323B323A323E2EEF
:105B2000F5D73AC007F03BC008F03CC009F03DC0D3
:105B30000AF039C00BF03FC00CF0B0EC30F007C0F9
:105B40002DF008C02EF009C02FF00AC030F012006E
:105B50003A2632503B2233503C2234503D22120030
:105B6000D89030322F322E322D32D8901200D89069
:105B7000383237323632353212008A966C6B6D6BA2
:105B80006E6B6F6B706B716B0DD06251ABEC38F05C
:105B9000085000016C2709506D23000E6E236F23FF
:105BA000704B712B6051705D61517159EEE3316A38
:105BB000326A200E336E400E346E60C011F061C048
:105BC00012F0F6EC39F011C044F012C045F013C0E9
:105BD00046F014C047F06CC011F06DC012F06EC0FA
:105BE00013F06FC014F070EC39F011C040F012C027
:105BF00041F013C042F014C043F0A6EC2EF040C0B8
:105C00002DF041C02EF042C02FF043C030F03FECE9
:105C10002DF02DC064F02EC065F02FC066F030C0AE
:105C200067F064C040F065C041F066C042F067C0F4
:105C300043F0446AF00E456E7F0E466E450E476E89
:105C4000A6EC2EF040C068F041C069F042C06AF096
:105C500043C06BF068C060F069C061F06AC062F078
:105C60006BC063F012000C6A000EF2BE010E02015E
:105C7000606FF29E65D802D0D8900A36092EFCD704
:105C800053C0D9FF54C0DAFF0A50DF120D6A58D84A
:105C900002D0D8900A36092EFCD70A1C0B6EF0C031
:105CA000D9FFF1C0DAFF0B50DF164AD802D0D890E6
:105CB0000A36092EFCD70A1C0B6E53C0D9FF54C0FC
:105CC000DAFF0B50DF1600F000F03AD802D0D8907F
:105CD0000A36092EFCD7F0C0D9FFF1C0DAFF0A500E
:105CE000DF12086A040E076E8CEC3BF0D8900C3281
:105CF00039C2D9FF3AC2DAFFDF50096E55C00AF047
:105D0000010E0B6E0A2A02D0D8900B360A2EFCD751
:105D10000B50091402E00C8E01D00C9E086A170E7D
:105D2000076E8CEC3BF00D2A070E0D64B0D7020114
:105D300060A101D0F28E60B101D0F29E0C50120031
:105D400055C009F0010E0A6E092A010C40C048F046
:105D500041C049F042C04AF043C04BF0180E01D098
:105D600061D8E82EFDD74850516E516601D011D050
:105D700044C048F045C049F046C04AF047C04BF027
:105D8000180E01D04FD8E82EFDD74850526E5266FB
:105D900005D0406A416A426A436A43D05250890F33
:105DA000515E43C052F04750521A800E5216428E36
:105DB000436A468E476A200E506ED8904C364D3658
:105DC0004E364F364450405C45504158465042583C
:105DD0004750435809E34450405E4550415A4650AD
:105DE000425A4750435A4C80D8904036413642364A
:105DF0004336502EE2D74CC007F04DC008F04EC0DD
:105E000009F04FC00AF051C00BF052C00CF0B0ECDA
:105E100030F007C040F008C041F009C042F00AC0AD
:105E200043F01200D8904B324A32493248321200C5
:105E300009C00FF0106A116A08340F3601E31080B0
:105E40000F50176E176605D0076A086A096A0A6A52
:105E50005AD00DC00FF0106A116A0C340F3601E3EE
:105E600010800F50166E166601D0EED7088E096AA4
:105E70000C8E0D6A126A136A146A156A7F0E175E19
:105E80001650980F175E180E166ED89012361336ED
:105E9000143615360B50075C0C5008580D50095835
:105EA00007E30B50075E0C50085A0D50095A128038
:105EB000D890073608360936162EE7D717AE0FD01A
:105EC0001750800A0F6EE90E800A0F5CBDE3D89070
:105ED0001532143213321232173EF9D70CD0170E86
:105EE000176407D0B1D7D89012361336143615364A
:105EF00017061766F8D712C007F013C008F014C0D1
:105F000009F015C00AF0120064D802D0D8900A3601
:105F1000092EFCD70A1C0B6EF0C0D9FFF1C0DAFFC6
:105F20000B50DF1600F055D802D0D8900A36092E53
:105F3000FCD70A1C0B6E53C0D9FF54C0DAFF0B50BC
:105F4000DF16086A560E076E8CEC3BF0086A560E98
:105F5000076E8CEC3BF0000EF2BE010E0201606F8A
:105F6000F29E37D802D0D8900A36092EFCD7F0C05E
:105F7000D9FFF1C0DAFF0A50DF12086A170E076E68
:105F80008CEC3BF039C2D9FF3AC2DAFFDF50096E20
:105F900055C00AF0010E0B6E0A2A02D0D8900B36BB
:105FA0000A2EFCD70B500914010ED8A4000E0C6E5B
:105FB000020160A101D0F28E60B101D0F29E086AA8
:105FC000560E076E8CEC3BF00C50010ED8B4000E50
:105FD000120055C009F0010E0A6E092A010C08EEE4
:105FE00000F0FA0EEE6AE806FDE107EE00F0FA0EA8
:105FF000EE6AE806FDE106EE00F0FA0EEE6AE8064B
:10600000FDE105EE00F0FA0EEE6AE806FDE104EEB1
:1060100000F0530EEE6AE806FDE103EE00F0E50E37
:10602000EE6AE806FDE102EE00F0BD0EEE6AE8065B
:10603000FDE10101FF6BFE6BFD6BFC6BFB6BFA6B13
:1060400000EEF0F00A0EEE6AE806FDE100EE53F015
:10605000070EEE6AE806FDE1C00EF66E730EF76EEF
:10606000000EF86E04EE53F010EE2BF00900F5CFA1
:10607000EEFFE550E150FAE1740EF66E750EF76E24
:10608000000EF86E02EEBDF010EE23F00900F5CF21
:10609000EEFFE550E150FAE1000EF86E00014AEF24
:1060A00037F049C04DF04AC04EF04BC04FF04CC0E5
:1060B00050F0180E01D04ED8E82EFDD74D50526E3C
:1060C000526605D0496A4A6A4B6A4C6A42D049C056
:1060D0004DF04AC04EF04BC04FF04CC050F0200E77
:1060E00001D038D8E82EFDD74D50516E4B8E4C6AFA
:1060F000960E525E52AE0FD05250800A4D6EE90E8F
:10610000800A4D5CDFE3D8904C324B324A32493240
:10611000523EF9D70CD01F0E526407D0D3D7D89077
:1061200049364A364B364C3652065266F8D75150ED
:1061300008E04C1E4B1E4A1E496C000E4A224B22A0
:106140004C2249C049F04AC04AF04BC04BF04CC009
:106150004CF01200D89050324F324E324D32120075
:106160000B5005E00A5007100810091007E1076AF4
:10617000086A096A0A6A4BD00B2A4AD80D6A0E6A65
:106180000F6AFE0E0A14106E10500D100E100F1034
:1061900008E0F2D70B2A072A000E082209220A2259
:1061A00037D80D6A0E6A0F6A0A50106E10500D1023
:1061B0000E100F1007E0EED70B06D8900736083602
:1061C00009360A3609AEF8D70BB002D07F0E091691
:1061D000D8900B320BC00DF00E6A0F6A106A0DC01A
:1061E00010F00F6A0E6A0D6A0D5007120E50081259
:1061F0000F50091210500A120C50D8A40A8E07C072
:1062000007F008C008F009C009F00AC00AF012003F
:10621000D8900A3209320832073212000801080EFB
:10622000086E000E076E170E0A6E800E096E0C6A5D
:10623000020E0B6E74EC35F0085007103DE1020EB3
:10624000246E256A236A1AD038D823500F0FE16EC6
:10625000E26ADFCFE7FF242A232AF90E246401D063
:106260002BD02550030D020EF326000EF4222CD85D
:106270000800F5CF0EF023500E5C1EE308011DD878
:106280002C0EDF62E1D723500F0FD96EDA6ADF6A76
:106290002550030D19D80900F5CF07F00A00F5CFF6
:1062A00008F00A6A0F0E096EB6EC37F0242A252A88
:1062B000050E2564C7D700F01200000E2424D96E05
:1062C000DA6A080EDA221200BD0EF324F66E110E01
:1062D000F420F76E120002D00D4A0E2A0DC0D9FF2D
:1062E0000EC0DAFFDF50200AF7E00DC0D9FF0EC064
:1062F000DAFFDF50090AF0E0126A136A116A2D0E04
:106300000DC0D9FF0EC0DAFFDF6202D0112A07D01C
:106310002B0E0DC0D9FF0EC0DAFFDF621BD00D4A75
:106320000E2A18D012C007F013C008F00A6A0A0E2D
:10633000096E83EC3AF00DC0D9FF0EC0DAFFDF50D2
:106340000726000E0822D00E0724126EFF0E08202A
:10635000136EE5D70DC0D9FF0EC0DAFFDF5038EC61
:106360003BF0E0E211500DE012C00FF013C010F04E
:106370000F1E101E0F4A102A0FC00DF010C00EF095
:1063800004D012C00DF013C00EF012000B6E000E00
:10639000F2BE010E0201606FF29E53C0D9FF54C0DD
:1063A000DAFFDF680C6AF0C0D9FFF1C0DAFFDF6AFC
:1063B00053C0D9FF54C0DAFFDF6A00F000F00CC010
:1063C00009F0010E0A6E092A02D0D8900A36092E69
:1063D000FCD70A500B1406E053C0D9FF54C0DAFFB3
:1063E000FF0E05D053C0D9FF54C0DAFF000EDF6E98
:1063F000086A170E076E8CEC3BF053C0D9FF54C0EF
:10640000DAFFDF68086A100E076E8CEC3BF00C2A8E
:10641000070E0C64C8D7020160A101D0F28E60B1F2
:1064200001D0F29EF0C0D9FFF1C0DAFFDF68FF0CA7
:106430000C0E116E0501050E086E000E076E190E8A
:106440000A6E380E096E0C6A060E0B6E74EC35F08F
:106450000850071002E0000E33D0060E126E02D074
:10646000122A00F02ED80FC007F010C008F0190E45
:106470000A6E940E096E0C6A040E0B6E74EC35F005
:1064800008500710EDE1070E125E0301030E086EBF
:10649000CC0E076E16D80FC009F010C00AF011C05C
:1064A0000BF00C6A07EC36F00301CB0E1124D96E09
:1064B000DA6A030EDA22000EDF6E00F000F0010E41
:1064C0001200000E0F6E050E106E12500F26000EF9
:1064D0001022000C0BD0A39A19EC38F0256E255031
:1064E0000AEC35F02550A0EC3BF0A38AB8EC3BF069
:1064F000000927E0F0D7040E46EC3BF0000903E06A
:10650000040E81EC3BF09D9A37EC38F0266E010EBC
:1065100046EC3BF0000909E0770E236E400E226E38
:1065200026C024F08FEC38F00BD0770E236E8A0E45
:10653000226E26C024F08FEC38F02650A6EC3BF0FB
:106540009D8ABDEC3BF00009D6E1ABB402D0ABA212
:1065500006D0AB9800F00201314B322BAB886BA414
:106560006BB202D0A4AA06D06B9800F00201334BA4
:10657000342B6B8812000E0E116E0801080E086E87
:10658000000E076E190E0A6E3F0E096E0C6A060E9B
:106590000B6E74EC35F0085007102EE1060E126EEB
:1065A00002D0122A00F029D80FC007F010C008F05E
:1065B000190E0A6E990E096E0C6A040E0B6E74ECBD
:1065C00035F008500710EDE10301030E086E9A0E36
:1065D000076E13D80FC009F010C00AF011C00BF0FD
:1065E0000C6A07EC36F00301990E1124D96EDA6AB1
:1065F000030EDA22000EDF6E1200000E0F6E080E80
:10660000106E12500F26000E1022000C126A10504D
:10661000800AF36E800EF35C000ED8B40F5C06E2C5
:106620000F6C101ED8B0102A010E126E0E50800A88
:10663000F36E800EF35C000ED8B40D5C06E20D6CB8
:106640000E1ED8B00E2A010E121A136A146A1050C8
:106650000F101BE0010E116E04D0D8900F361036CB
:10666000112A10AEFAD7D890133614360F500D5C9D
:1066700010500E5805E30F500D5E10500E5A138047
:10668000D89010320F32112EEED7125004E0136C56
:10669000141ED8B0142A13C00DF014C00EF012004E
:1066A00030D019C0F6FF1AC0F7FFF86A0F0EF76472
:1066B00003D00800F55005D0F6CFE1FFF7CFE2FF99
:1066C000E7505E0A06E1220EA6EC3BF0194A1A2AB0
:1066D00013D019C0F6FF1AC0F7FFF86A0F0EF7645F
:1066E00003D00800F55005D0F6CFE1FFF7CFE2FF69
:1066F000E750A6EC3BF0EAD7146A320E136E17ECA3
:1067000034F019C0F6FF1AC0F7FFF86A0F0EF764ED
:1067100003D00800F55005D0F6CFE1FFF7CFE2FF38
:10672000E7500009D8B41200BCD70C6A0850800AA0
:10673000F36E800EF35C000ED8B4075C06E2076CC3
:10674000081ED8B0082A010E0C6E0A50800AF36E9B
:10675000800EF35C000ED8B4095C04E2096C0A1EDA
:10676000D8B00A2A0A50091017E0010E0B6E04D0A7
:10677000D89009360A360B2A0AAEFAD70950075CB8
:106780000A50085804E30950075E0A50085AD89086
:106790000A3209320B2EF2D70C5004E0076C081EA7
:1067A000D8B0082A07C007F008C008F012000D6A28
:1067B000250E36D820EC3AF0145013100AE0110ED2
:1067C000135C270E145807E2140E135C000E1458C5
:1067D00002E300F009D0020E146ED00E136E0F6AA1
:1067E000250E17D82AEC39F00D6A270E19D820EC9F
:1067F0003AF0650E135C000E145802E200F008D067
:10680000146A0A0E136E0F6A270E03D82AEC39F0A9
:1068100012000E6E116A130E106E020E126E020C32
:106820000C6E0F6A130E0E6E020E106E020C13C069
:1068300007F014C008F0096A0A6AA00E0B6E0F0E6A
:106840000C6E000E0D6A0E6AFFEC36F007C015F0F4
:1068500008C016F009C017F00AC018F0560E152629
:10686000FF0E1622172218221850800A800F08E106
:10687000000E175C05E1000E165C02E1C40E155C0B
:1068800015E307D000F0D90E1526FF0E16221722A9
:1068900018221850800A800F08E1000E175C05E1ED
:1068A000000E165C02E1010E155CECE212000DC058
:1068B00009F00CC008F0D8EC35F02CD80EC007F069
:1068C0000FC008F035EC3AF00750106E126A1DD078
:1068D00021D812500E24D96E000E0F20DA6EDF5030
:1068E000116E01D80BD00500FA6E0C50FD6E0D50E4
:1068F000FE6EF850FF6EFA5011501200020157EC74
:1069000036F011C0DFFF8F2B122A1050125CD8B066
:106910001200DED704015251140D000E0E6E040E4B
:106920000F6EF3500E26F4500F2212000F6A106AF9
:10693000116A126A0E500B100C100D1029E0010E96
:10694000136E06D0D8900B360C360D360E36132A41
:106950000EAEF8D7D8900F361036113612360B50CF
:10696000075C0C5008580D5009580E500A5809E39E
:106970000B50075E0C50085A0D50095A0E500A5A17
:106980000F80D8900E320D320C320B32132EE2D71C
:106990000FC007F010C008F011C009F012C00AF0D3
:1069A0001200F0C0D9FFF1C0DAFFDF6A53C0D9FF8F
:1069B00054C0DAFFDF6A086A560E076E8CEC3BF0B3
:1069C000086A560E076E8CEC3BF0F0C0D9FFF1C0A0
:1069D000DAFFDF68086A170E076E8CEC3BF0086A76
:1069E000560E076E8CEC3BF0CC0EC6EC31F0440E2C
:1069F000C6EC31F0086A040E076E8CEC3BF0F0C078
:106A0000D9FFF1C0DAFFDF6A53C0D9FF54C0DAFF03
:106A1000DF68FF0C0D6E0D500D0A28E00D500A0ABC
:106A20000DE102015F5107E0000E5F25D96EDA6AC1
:106A3000050EDA22DF6A02015F6B18D002015F6780
:106A40000BD0080E086E000E076E0501050E0A6ECB
:106A5000000E096EB6EC37F0000E02015F25D96E0C
:106A6000DA6A050EDA220DC0DFFF5F2BF90E020194
:106A70005F6504D05F6B0501006B00F01200600ED3
:106A8000D36E9B8C086A560E076E8CEC3BF000F0C0
:106A9000146A640E136E17EC34F000F08688988840
:106AA000959E53EC3BF00F0EC16EF19E8C968C9828
:106AB0008C9C8C8A95969598959C959AB10ECD6EE6
:106AC0009F909E909D80F28CD08E949C948E0DEC25
:106AD0003BF098929884FEEC3AF07E827C829F8A0A
